:020000040800F2
:1000000000060020E1010008E3010008E301000808
:10001000E3010008E3010008E3010008E301000830
:10002000E3010008E3010008E301000829360008A5
:10003000E3010008E3010008E3010008E301000810
:10004000E3010008E3010008E3010008E301000800
:10005000E3010008E3010008E3010008E3010008F0
:10006000E3010008E3010008E3010008E3010008E0
:10007000E3010008E3010008E3010008E3010008D0
:10008000E3010008E3010008E3010008E3010008C0
:10009000E3010008E3010008E3010008E3010008B0
:1000A000E3010008E3010008E3010008E3010008A0
:1000B000E3010008E3010008E3010008E301000890
:1000C000E3010008E3010008E3010008E301000880
:1000D000E3010008E3010008D9380008E301000843
:1000E000E3010008E3010008E3010008E301000860
:1000F000E3010008E3010008E3010008E301000850
:10010000E3010008E3010008ED380008E3010008FE
:10011000E3010008E3010008E3010008E30100082F
:10012000E3010008E3010008E3010008E30100081F
:10013000E3010008E3010008E3010008E30100080F
:10014000E3010008E3010008E3010008FD2D0008B9
:10015000E3010008E3010008E3010008E3010008EF
:10016000E3010008E3010008E3010008E3010008DF
:10017000E3010008E3010008E3010008E3010008CF
:10018000E3010008E3010008E3010008E3010008BF
:10019000E3010008E3010008E3010008E3010008AF
:1001A000E3010008E3010008E3010008E30100089F
:1001B000E3010008E3010008E3010008E30100088F
:1001C000E3010008E3010008E3010008E30100087F
:1001D000E3010008E3010008E3010008E30100086F
:1001E00002E000F000F8FEE772B6374880F30888B6
:1001F000364880F3098836483649086040F20000E6
:10020000CCF200004EF63471CEF200010860BFF36C
:100210004F8FBFF36F8F40F20000C0F2F0004EF638
:100220008851CEF200010860BFF34F8FBFF36F8F8C
:100230004FF00000E1EE100A4EF63C71CEF20001E4
:100240000860062080F31488BFF36F8F02F0A2FAD3
:1002500003F08AF94FF055301F491B4A91423CBFC9
:1002600041F8040BFAE71D49184A91423CBF41F896
:10027000040BFAE71A491B4A1B4B9A423EBF51F83E
:10028000040B42F8040BF8E700201849184A914281
:100290003CBF41F8040BFAE702F080FA03F0B6F92C
:1002A000144C154DAC4203DA54F8041B8847F9E7A7
:1002B00000F0A0F8114C124DAC4203DA54F8041BC4
:1002C0008847F9E702F068BA000600200022002003
:1002D0000000000808ED00E00000002000060020FB
:1002E000F03C0008002200204C2200205022002078
:1002F000A8300020E0010008E0010008E00100084B
:10030000E00100082DE9F04F2DED108AC1F80CD066
:10031000C3689D46BDEC108ABDE8F08F002383F3CF
:1003200011882846A047002001F0E4FDFEE701F017
:100330006DFD00DFFEE7000080EA0102844612F056
:10034000030F4FD111F0030F32D14DF8044D11F0CE
:10035000040F51F8043B0BD0A3F101329A4312F081
:10036000803F04BF4CF8043B51F8043B16D100BF5A
:1003700051F8044BA3F101329A4312F0803FA4F1EB
:1003800001320BD14CF8043BA24312F0803F04BF72
:1003900051F8043B4CF8044BEAD023460CF8013BDF
:1003A00013F0FF0F4FEA3323F8D15DF8044B704789
:1003B00011F0010F06D011F8012B0CF8012B002AC7
:1003C00008BF704711F0020FBFD031F8022B12F0B6
:1003D000FF0F16BF2CF8022B8CF8002012F47F4F71
:1003E000B3D1704711F8012B0CF8012B002AF9D179
:1003F000704700BF38B500F0C1FB02F097F9054621
:1004000002F0BAF90446C8B90F4B9D4219D0013326
:100410009D4218BF044641F2883504BF01240025DF
:10042000002002F08DF90CB100F074F800F000FD2E
:10043000284600F0BFF800F06DF8F9E70025012428
:10044000EEE70546ECE700BF010007B008B500F095
:1004500063FBA0F120035842584108BD07B50421B1
:1004600001900DEB010000F073FB03B05DF804FB9D
:1004700038B5302383F31188174803680BB101F0B6
:1004800005FE164A144800234FF47A7101F0F4FD7A
:10049000002383F31188124C236813B12368013BB6
:1004A0002360636813B16368013B63600D4D2B7873
:1004B00033B963687BB9022000F02AFC3223636001
:1004C0002B78032B07D163682BB9022000F020FCA6
:1004D0004FF47A73636038BD602300207104000814
:1004E000542300205C230020084B187003280CD8EC
:1004F000DFE800F008050208022000F0FFBB022040
:1005000000F0F2BB024B00225A6070475C230020CF
:1005100054230020234B244A10B51C46196801318E
:100520003FD004339342F9D16268A24239D31F4BC2
:100530009B6803F1006303F580439A4231D20020A7
:1005400000F036FB0220FFF7CFFF194B1A6C002298
:100550001A64196E1A66196E596C5A64596E5A6685
:100560005A6E5A6942F080025A615A6922F080023A
:100570005A615A691A6942F000521A611A6922F0E6
:1005800000521A611B6972B64FF0E0233021C3F8A4
:10059000084DD4E9003281F311889D4683F3088821
:1005A000104710BD00400008204000080022002035
:1005B000003802402DE9F04F95B0DFF80883019034
:1005C0002022FF2104A8D8F8086000F0DBFBB44A21
:1005D0001378A3B9B348012103601170302383F36A
:1005E000118803680BB101F051FDAF4AAD480023FB
:1005F0004FF47A7101F040FD002383F31188019BD1
:1006000013B1AA4B019A1A60A94A019D1378032BD2
:100610001EBF00231370A54A4FF0000A18BF536095
:10062000D3465446D146012000F068FB25B19F4BCC
:100630001B68002B00F00882002000F06DFA071EF6
:10064000F4DB012000F050FBA7F121001628EAD8C6
:1006500001A353F820F000BFB5060008D10600083A
:100660005B07000827060008270600082706000881
:10067000D9070008BB090008850800080B09000815
:100680003109000857090008270600086909000811
:100690008D090008030A00083B0700082706000828
:1006A0004F0A0008C10600083B070008270600089B
:1006B0000B0900080220FFF7C9FE002840F0E08087
:1006C000019B7C48BAF1000F08BF1D4602213EE0A5
:1006D0004FF47A7000F020FA071EF1DB0220FFF7DA
:1006E000B5FE0028ECD0013F052F00F2DA81DFE8EB
:1006F00007F003070A0D10310520FFF7AFFE14E0E5
:10070000D8F80000F9E7D8F80400F6E7D8F80800B0
:10071000F3E74FF01C09484600F04CFA09F10409D0
:10072000FFF79CFEB9F12C0FF5D10123BB404BEA3A
:1007300003035FFA83FB4FF0000900F06FFB24B165
:100740000BF00B030B2B08BF00255B48022100F0C8
:10075000FFF968E7D8F80C00CFE7002CB0D00BF019
:100760000B030B2B5AD10220FFF770FE0446002822
:1007700054D0012000F01CFA0220FFF7B5FE00273C
:100780001FFA87FA504600F023FA054688B9484B0D
:10079000012202201A7000F0A7FA2E46D8F808307D
:1007A000B34212D8424B00261E70404BA2465E60F8
:1007B000C3E70021504600F01BFA01370546002828
:1007C000DED1A2463D480221C1E7304600F0F2F9F1
:1007D0000130F6D10436E1E7002C3FF471AF0BF0A5
:1007E0000B030B2B1AD10220FFF77EFE322000F004
:1007F00093F9071E12DB17F003030FD1D8F8081086
:10080000BA198A420AD8B7F5807F07D82C4A9F4286
:1008100006DCC820FFF71AFE044680B901244FE722
:100820004FF47A70CDE9023200F076F90028FFF635
:1008300047AF039A029B02F8010B0133E7E71F2E33
:1008400011D8C6F12002BA4204AB26F0030028BF3B
:100850003A461B490292184400F074FA029A18486A
:10086000FF2100F08FFABB1015490293C7F38702EE
:10087000304600F08FFA0028A4D0029B06EB8306D6
:1008800004465AE70220FFF7E1FD00283FF418AFC5
:1008900000F0DAF900283FF413AF00273B4626E0CA
:1008A00050230020602300207104000854230020FE
:1008B0005C230020DC390008E0390008D839000842
:1008C00050220020002200201F2F18D8049A013245
:1008D00015D027F0030250326A4452F8400C0C90B5
:1008E000042218460CA900F0FFFA04370346D8F892
:1008F0000820BA42E8D81846FFF7B0FD1DE7384691
:10090000029300F057F9029BE9E7002364210CA849
:100910000C9300F015F900287FF4D2AE0220FFF707
:1009200095FD00283FF4CCAE0C9800F075F9E3E794
:10093000002364210CA80C9300F002F900287FF436
:10094000BFAE0220FFF782FD00283FF4B9AE0C983D
:1009500000F072F9D0E70220FFF778FD00283FF49D
:10096000AFAE00F081F9C7E70220FFF76FFD002866
:100970003FF4A6AE0CA9142000F07CF90746FFF75F
:100980006DFD39460CA800F0E3F8D6E60220FFF72B
:100990005DFD00283FF494AE434B0CAF03F1100C07
:1009A000186859683A4603C2083363451746F7D1B9
:1009B0001020FFF753FD1021E4E7322000F0ACF8DF
:1009C000071EFFF67DAEBB077FF47AAED8F808208D
:1009D00007EB090393423FF673AE0220FFF736FDA3
:1009E00000283FF46DAE27F003074F44B9453FF4AC
:1009F000A4AE484600F0DEF8FFF730FD09F1040927
:100A0000F4E74FF47A70FFF721FD00283FF458AE69
:100A100000F01AF900283FF4D5AE049B01330CD046
:100A2000082204A9002000F0B5F900283FF4CAAE5E
:100A30002022FF2104A800F0A5F91C48022100F0A3
:100A400087F81B4801F05CFA15B0BDE8F08F002C68
:100A50003FF436AE0BF00B030B2B7FF431AE0023CB
:100A600064210CA80C9300F06BF8074600287FF473
:100A700027AE0220FFF7EAFC029000283FF420AEE8
:100A800002210A4800F064F841F2883001F038FA97
:100A90000C9800F007FA00F0C1F9029B3D461C4695
:100AA000C1E54FF000090BE63C390008E0390008C9
:100AB000A08601002DE9F0474FF47A77DFF85080E7
:100AC000DFF8509006460D465743002498F9003051
:100AD0005A1C01D0A34211D159F8240003682A46B8
:100AE000D3F820A031463B46D047854206D1074B7C
:100AF00001201C70BDE8F0870124E7E7002CFBD043
:100B00004FF4FA7001F0FCF90020F3E7A82300206D
:100B1000102200201422002007B5002302460121E4
:100B20000DF107008DF80730FFF7C4FF20B19DF8E5
:100B3000070003B05DF804FB4FF0FF30F9E7000059
:100B400008B50A460421FFF7B5FF013808BD0000CB
:100B500030B4074B0A461978064B054653F8210076
:100B60000368DC69044B2946A44630BC604700BFDB
:100B7000A823002014220020A086010070B501F0F7
:100B8000D7FC094E094C3080002520683388834209
:100B900008D901F0C7FC236805440133B5F5804F3F
:100BA0002360F2D370BD00BFA0230020A423002047
:100BB00001F070BD00F1006000F5804000687047F2
:100BC00000F10060920000F5804001F0FFBC0000E1
:100BD000054B1A68054B1B889B1A834202D91044A7
:100BE00001F0A0BC00207047A4230020A023002017
:100BF00038B5084D0446286829B128682044BDE866
:100C0000384001F0AFBC204401F094FC0028F4D03F
:100C100038BD00BFA4230020034610F0030009D113
:100C2000B3F5047F07D203F10053A3F51043D3F8C3
:100C3000000870470020704700F10050A0F51040F8
:100C4000D0F8100A70470000064991F8243033B1FB
:100C50000023086A81F824300822FFF7B1BF012081
:100C6000704700BF78230020014B1868704700BF11
:100C7000002004E070B5194B194A1D68431EC5F3E6
:100C80000B040B442D0C0520013808D1994208466D
:100C900010D3144A0624013C15D1401A70BD1688A1
:100CA000A6420ED152680846013A9842F1D212F992
:100CB000014F1CB92C2200F8012BEAE700F8014B88
:100CC000F3E70832E0E71688AE4204D198423CBF11
:100CD000967800F8016B0432DDE700BF002004E0E5
:100CE000F8390008E4390008022802BF024B4FF42B
:100CF00000529A61704700BF00180240022802BFEC
:100D0000024B4FF000529A61704700BF001802403A
:100D1000022801BF024A536983F4005353617047AC
:100D20000018024070B504464FF47A7604B970BDDD
:100D3000412C254628BF412506FB05F001F0E0F8CF
:100D4000641BF3E710B50023934200D110BDCC5CC7
:100D5000C4540133F8E7000010B5013810F9013F21
:100D60003BB191F900409C4203D11AB10131013AE3
:100D7000F4E71AB191F90020981A10BD1046FCE76B
:100D8000FFF7FEBF02440346934200D1704703F8C9
:100D9000011BF9E72DE9F8431F4D144695F824206F
:100DA0000746884622B9DFF870906CB9012009E047
:100DB0002B6A03EB82038342F5D0FFF745FF00283F
:100DC000F1D10020BDE8F88395F824302BB920221A
:100DD000FF2148462F62FFF7D5FF95F82400C0F1A8
:100DE0000802A24228BF2246D6B24146920005EB35
:100DF0008000FFF7A7FF95F82430A41B1E44F6B22D
:100E0000082E17449044E4B285F82460CDD1FFF752
:100E10001BFF0028C9D1D4E778230020024B1A78A1
:100E2000024B1A70704700BFA82300201022002038
:100E300038B5174C174D204600F0B6FB2946204622
:100E400000F0DEFB2D686A6D936B23F4002393633F
:100E50004FF47A70FFF766FF0F49284600F0D8FC80
:100E60006A6D0E4D936B28680D4943F4002393631C
:100E7000A0424FF461430B6001D000F0F5FA6868BE
:100E8000A04204D0BDE83840054900F0EDBA38BDB5
:100E9000302B0020943A00089C3A000814220020CD
:100EA000AC230020F8B50C4B0C4E1F780C4B56F8B9
:100EB00027209A4205460DD00A4C002120461422D4
:100EC000FFF760FF256056F827002146BDE8F8408F
:100ED00000F0CABAF8BD00BFA823002014220020E9
:100EE000302B0020AC23002030B5094D0A4491423C
:100EF00000D130BD11F8013B5840082340F30004F5
:100F0000013B2C4013F0FF0384EA5000F6D1EEE7DA
:100F10002083B8ED026843680A43026003B11847B2
:100F200070470000024AD36843F0C003D3607047A3
:100F30000044004010B5054C054A0021204600F051
:100F400071FA044A044BC4E9972310BDC023002062
:100F5000250F00080044004080DE8002234B30B59E
:100F6000002914BF0C461C46037CC0F86842012BC4
:100F70000CD11F4B984209D11E4B1A6C42F400321F
:100F80001A641A6E42F400321A661B6EB4F90450E9
:100F90002168D0F86032D0F85C22002D03EB5103B9
:100FA000B3FBF1F3BEBF23F0070503F0070343EAE9
:100FB0004503A1889360E38843F0400313612389CC
:100FC00043F00103536141F4045343F02C03D36015
:100FD00001F4A05100231360B1F5806F13685368CA
:100FE00014BFFF237F2380F8643230BD183A000815
:100FF000C0230020003802402DE9F041D0F85C62A7
:10100000F76833680446D8059DB20DD5302383F3C5
:1010100011884FF48061201DFFF77CFF6FF480730F
:101020003360002383F31188302383F3118804F1A4
:10103000040815F02F033AD183F31188380615D52B
:10104000290613D5302383F3118804F1380000F00A
:1010500065F900284CDA0821201DFFF75BFF4FF6E9
:101060007F733B40F360002383F311887A0616D523
:101070006B0614D5302383F31188D4E913239A42E5
:101080000AD1236C43B127F040073F041021201DF3
:101090003F0CFFF73FFFF760002383F31188D4F87C
:1010A0006822D36833B3BDE8F041106918472907B7
:1010B00012D045F30001C5F3C00301F0200141EA5D
:1010C0000321AA0748BF41F040016B0748BF41F028
:1010D00080014046FFF71EFFAD06736805D594F802
:1010E00064122046194000F0CDF93568ADB2A0E792
:1010F0007060B8E7BDE8F081F8B51546826806690A
:10110000AA420B46816938BF8568761AB542044603
:101110000BD22A461846FFF715FEA2692A44A36897
:10112000A2615B1BA3602846F8BD0CD91846324665
:10113000FFF708FEAF1B3A46E1683044FFF702FEB6
:10114000E368DA19EBE72A461846FFF7FBFDE26889
:10115000E5E70000836893422DE9F0411546044617
:1011600038BF8568D0E904703F1ABD420E460BD2E5
:101170002A46FFF7E7FD62692A44A36862615B1BA8
:10118000A3602846BDE8F0810DD93A46A5EB0708D3
:10119000FFF7D8FD4246E068F119FFF7D3FDE36899
:1011A00003EB0802E9E72A46FFF7CCFDE268E4E733
:1011B00010B5C0E905110024C160C3611144029B50
:1011C0008460C0E900000161036210BD08B5D0E988
:1011D0000532934201D1826882B98268013282600D
:1011E0005A1C42611970D0E904329A4224BFC36884
:1011F0004361002100F0A0FE002008BD4FF0FF3049
:10120000FBE7000070B5302304460D4683F31188D8
:10121000A668A6B1A368A269013BA360531CA361A1
:1012200015782269934224BFE368A361E3690BB197
:1012300020469847002383F31188284607E0294673
:10124000204600F069FE0028E2DA86F3118870BDBE
:101250002DE9F74F05460F4614469946D0F81CA0D5
:101260004FF0300888F311884FF0000B164666B136
:10127000324639462846FFF73FFF034660B94946E4
:10128000284600F049FE0028F2D0002383F311889D
:10129000A01B03B0BDE8F08FBAF1000F03D001909E
:1012A0002846D047019B8BF31188F61A1F4488F318
:1012B0001188DCE7C0E90511C160C3611144009BDE
:1012C0008260C0E90000016103627047F8B504461E
:1012D0000D461646302383F31188A768A7B1A3688B
:1012E000013BA36063695A1C62611D70D4E904323A
:1012F0009A4224BFE3686361E3690BB120469847D3
:10130000002080F3118807E03146204600F004FEFB
:101310000028E2DA87F31188F8BD0000D0E9052340
:101320009A4210B501D182687AB98268013282602E
:101330005A1C82611C7803699A4224BFC368836186
:10134000002100F0F9FD204610BD4FF0FF30FBE713
:101350002DE9F74F05460F4614469946D0F81CA0D4
:101360004FF0300888F311884FF0000B164666B135
:10137000324639462846FFF7EDFE034660B9494636
:10138000284600F0C9FD0028F2D0002383F311881D
:10139000A01B03B0BDE8F08FBAF1000F03D001909D
:1013A0002846D047019B8BF31188F61A1F4488F317
:1013B0001188DCE7026843680A43026003B11847FA
:1013C000704700001430FFF743BF00004FF0FF33B9
:1013D0001430FFF73DBF00003830FFF7B9BF000001
:1013E0004FF0FF333830FFF7B3BF00001430FFF782
:1013F00009BF00004FF0FF311430FFF703BF0000BA
:101400003830FFF763BF00004FF0FF323830FFF78E
:101410005DBF0000012914BF6FF01300002070476A
:10142000FFF788BD37B515460E4A026000224260BC
:10143000C0E902220122044602740B46009000F12A
:101440005C014FF480721430FFF7B2FE00942B461B
:101450004FF4807204F5AE7104F13800FFF72AFFF3
:1014600003B030BD2C3A000810B53023044683F396
:101470001188FFF773FD02232374002080F3118885
:1014800010BD000038B5C36904460D461BB90421E0
:101490000844FFF78FFF294604F11400FFF796FE7A
:1014A000002806DA201D4FF40061BDE83840FFF740
:1014B00081BF38BD026843680A43026003B1184720
:1014C0007047000013B5446BD4F894341A6811784F
:1014D000042915D1217C022912D1197912890123FD
:1014E0008B4013420CD101A904F14C0001F0F4FE31
:1014F000D4F89444019B21790246206800F0D2F987
:1015000002B010BD143001F07DBE00004FF0FF337B
:10151000143001F077BE00004C3001F049BF0000EC
:101520004FF0FF334C3001F043BF0000143001F0A6
:101530004BBE00004FF0FF31143001F045BE0000FB
:101540004C3001F015BF00004FF0FF324C3001F07D
:101550000FBF00000020704710B5D0F894341A680F
:1015600011780429044617D1017C022914D1597934
:10157000528901238B4013420ED1143001F0DEFD5D
:10158000024648B1D4F894044FF48073417900685E
:10159000BDE8104000F074B910BD0000406BFFF7CB
:1015A000DBBF0000704700007FB5124B03600023D3
:1015B0004360C0E90233012502260F4B057404463F
:1015C0000290019300F18402294600964FF4807343
:1015D000143001F08FFD094B0294CDE9006304F54E
:1015E00023724FF48073294604F14C0001F050FE41
:1015F00004B070BD543A00089D150008C5140008D9
:101600000B68302282F311880A7903EB8202906121
:101610004A79093243F822008A7912B103EB820336
:1016200098610223C0F894140374002080F3118899
:101630007047000038B5037F044613B190F854306A
:10164000ABB9201D01250221FFF734FF04F114007E
:1016500025776FF0010100F07BFC84F8545004F111
:101660004C006FF00101BDE8384000F071BC38BD9E
:1016700010B5012104460430FFF71CFF0023237737
:1016800084F8543010BD000038B5044600251430ED
:1016900001F048FD04F14C00257701F011FE201DFA
:1016A00084F854500121FFF705FF2046BDE838407B
:1016B000FFF752BF90F8442002F06002202A034650
:1016C00015D190F84520212A4FF0000002D81F2A9A
:1016D00003D87047222A07D07047064A9A63072228
:1016E000DA63186401207047C3E90E00F9E70020AF
:1016F000704700BF1C22002037B5D0F894341A6818
:101700001178042904461AD1017C022917D11979CC
:10171000128901238B40134211D100F14C05284658
:1017200001F08CFE58B101A9284601F0D5FDD4F88E
:101730009444019B21790246206800F0B3F803B07D
:1017400030BD000000EB8103F7B59E6904460D46ED
:10175000F6B1302383F3118804EB8507301D08218F
:10176000FFF7A8FEFB685B691B684C3613B1304677
:1017700001F0C0FD01A9304601F0AEFD024648B1BE
:10178000019B2946204600F08DF8002383F3118841
:1017900003B0F0BDFB685A691268002AF5D01B8AB5
:1017A000013B1340F1D104F14402EAE7093138B5B5
:1017B00050F82140DCB1302383F31188D4F894240D
:1017C0001368527903EB8203DB689B695D6845B15E
:1017D00004216018FFF76EFE294604F1140001F0A1
:1017E000B7FC2046FFF7B8FE002383F3118838BD0D
:1017F0007047000001F026B8012303700023C0E900
:101800000133C36183620362C3624362036370474F
:1018100038B50446302383F311880025C0E9035509
:10182000C0E90555416001F01DF80223237085F3DE
:101830001188284638BD000070B500EB81030546CD
:101840005069DA600E46144618B110220021FFF7E5
:1018500099FAA06918B110220021FFF793FA3146D6
:101860002846BDE8704001F0C7B80000826802F069
:10187000011282600022C0E90422826101F046B9AF
:10188000F0B400EB81044789E4680125A4698D4028
:101890003D43458123600023A2606360F0BC01F0FA
:1018A00061B90000F0B400EB81040789E468012508
:1018B00064698D403D43058123600023A26063601D
:1018C000F0BC01F0D9B9000070B502230025044630
:1018D0000370C0E90255C0E90455C564856180F80C
:1018E000345001F025F863681B6823B1294620466F
:1018F000BDE87040184770BD0378052B10B504464D
:101900000AD080F850300523037043681B680BB180
:10191000042198470023A36010BD00000178052929
:1019200006D190F85020436802701B6803B1184735
:101930007047000070B590F83430044613B10023AE
:1019400080F8343004F14402204601F001F9636864
:101950009B68B3B994F8443013F0600535D000218A
:10196000204601F093FB0021204601F085FB6368CF
:101970001B6813B1062120469847062384F83430AB
:1019800070BD204698470028E4D0B4F84A30E26B96
:101990009A4288BFE36394F94430E56B002B4FF023
:1019A000300380F20381002D00F0F280092284F8D8
:1019B000342083F311880021D4E90E232046FFF759
:1019C00071FF002383F31188DAE794F8452003F0D0
:1019D0007F0343EA022340F20232934200F0C580C3
:1019E00021D8B3F5807F48D00DD8012B3FD0022BF2
:1019F00000F09380002BB2D104F14C02A2630222CA
:101A0000E2632364C1E7B3F5817F00F09B80B3F507
:101A1000407FA4D194F84630012BA0D1B4F84C30CB
:101A200043F0020332E0B3F5006F4DD017D8B3F5A1
:101A3000A06F31D0A3F5C063012B90D8636894F8F0
:101A400046205E6894F84710B4F848302046B04706
:101A5000002884D04368A3630368E3631AE0B3F506
:101A6000106F36D040F6024293427FF478AF5C4B61
:101A7000A3630223E3630023C3E794F84630012BFA
:101A80007FF46DAFB4F84C3023F00203C4E90E5577
:101A9000A4F84C30256478E7B4F84430B3F5A06F6F
:101AA0000ED194F8463084F84E30204600F098FF6E
:101AB00063681B6813B101212046984703232370F4
:101AC0000023C4E90E339CE704F14F03A363012311
:101AD000C3E72378042B10D1302383F311882046E9
:101AE000FFF7C4FE85F311880321636884F84F5023
:101AF00021701B680BB12046984794F84630002BA4
:101B0000DED084F84F300423237063681B68002BF9
:101B1000D6D0022120469847D2E794F848301D06D7
:101B200003F00F0120460AD501F004F8012804D083
:101B300002287FF414AF2B4B9AE72B4B98E700F069
:101B4000EBFFF3E794F84630002B7FF408AF94F8EE
:101B5000483013F00F01B3D01A06204602D501F029
:101B6000A9FAADE701F09CFAAAE794F84630002BF9
:101B70007FF4F5AE94F8483013F00F01A0D01B06A7
:101B8000204602D501F082FA9AE701F075FA97E74C
:101B9000142284F8342083F311882B462A462946E0
:101BA0002046FFF76DFE85F31188E9E65DB1152249
:101BB00084F8342083F311880021D4E90E232046D1
:101BC000FFF75EFEFDE60B2284F8342083F31188D4
:101BD0002B462A4629462046FFF764FEE3E700BF6E
:101BE000843A0008803A00087C3A000838B590F83A
:101BF00034300446002B3ED0063BDAB20F2A34D8EC
:101C00000F2B32D8DFE803F037313108223231317F
:101C10003131313131313737C56BB0F84A309D42FF
:101C200014D2C3681B8AB5FBF3F203FB12556DB9DE
:101C3000302383F311882B462A462946FFF732FECC
:101C400085F311880A2384F834300EE0142384F8D5
:101C50003430302383F3118800231A461946204676
:101C6000FFF70EFE002383F3118838BD036C03B128
:101C700098470023E7E70021204601F007FA0021FA
:101C8000204601F0F9F963681B6813B1062120466C
:101C900098470623D7E7000010B590F83430142B8E
:101CA000044629D017D8062B05D001D81BB110BD8A
:101CB000093B022BFBD80021204601F0E7F9002167
:101CC000204601F0D9F963681B6813B1062120464C
:101CD0009847062319E0152BE9D10B2380F83430FF
:101CE000302383F3118800231A461946FFF7DAFDE3
:101CF000002383F31188DAE7C3689B695B68002BD4
:101D0000D5D1036C03B19847002384F83430CEE773
:101D100000230375826803691B6899689142FBD2AE
:101D20005A68036042601060586070470023037572
:101D3000826803691B6899689142FBD85A680360FE
:101D4000426010605860704708B50846302383F33E
:101D500011880B7D032B05D0042B0DD02BB983F3F9
:101D6000118808BD8B6900221A604FF0FF33836130
:101D7000FFF7CEFF0023F2E7D1E9003213605A608B
:101D8000F3E70000FFF7C4BF38B50A4BDD681C68F5
:101D9000287522681A605360DC60A36801229342B0
:101DA000227501D100F0F2FC29462046BDE83840FA
:101DB000FEF7A8BA4028002030B50C4BDD684B1C5C
:101DC00087B004460FD02B46094A684600F054F904
:101DD0002046FFF7D9FF009B13B1684600F056F983
:101DE000A86907B030BDFFF7CFFFF9E74028002012
:101DF000491D0008044B1A68DB6890689B6898428C
:101E000094BF0020012070474028002038B50B4BBC
:101E10001C68DD6822681A60536001222275DC604C
:101E2000AB68934201D100F0B3FC2846FFF77EFF78
:101E300001462046BDE83840FEF764BA402800203D
:101E400038B5074C07490848012300252370656011
:101E500001F032FB0223237085F3118838BD00BFE7
:101E600098280020883A00084028002000F044B953
:101E7000034A516853685B1A9842FBD8704700BF09
:101E8000001000E08B60022308618B8208467047D7
:101E90008368A3F1840243F8142C026943F8442CAC
:101EA000426943F8402C094A43F8242CC26843F89D
:101EB000182C022203F80C2C002203F80B2C044AE5
:101EC00043F8102CA3F12000704700BF1D03000849
:101ED0004028002008B5FFF7DBFFBDE80840FFF70A
:101EE00051BF0000024BDB6898610F20FFF74CBF29
:101EF00040280020302383F31188FFF7F3BF000050
:101F000008B50146302383F311880820FFF754FFFA
:101F1000002383F3118808BD064BDB6839B14268A2
:101F200018605A60136043600420FFF745BF4FF00C
:101F3000FF3070474028002003460068834205D0E8
:101F400002681A6053608161FFF71CBF7047000090
:101F500038B504460D462068844200D138BD036878
:101F600023605C608561FFF70DFFF4E710B503683F
:101F70009C68A2420CD85C688A600B604C6021604F
:101F800059609968891A99604FF0FF33836010BDDA
:101F90001B68121BECE700000A2938BF0A2170B544
:101FA00004460D460A26601901F07EFA01F066FA31
:101FB000041BA54203D8751C2E460446F3E70A2EDF
:101FC00004D9BDE87040012001F0B6BA70BD000030
:101FD000F8B5144B1446D961826003F110024260D7
:101FE0000A2C1A69026038BF0A2450601861081967
:101FF0000D4601F049FA0A2701F040FA431BA342BB
:10200000064606D37C1C281901F04EFA27463546B1
:10201000F2E70A2F04D9BDE8F840012001F08CBA9C
:10202000F8BD00BF4028002070B50D46064601F0FF
:1020300025FA0F490B4653F8102F9A4206D12A462B
:1020400001463046BDE87040FFF7C2BFCB69C41AF5
:102050002C19936828BF2C46A34202D92946FFF7C2
:102060009BFF224631460348BDE87040FFF77EBF24
:10207000402800205028002010B4C0E9032300238A
:102080005DF8044B4361FFF7CFBF000010B5194C5A
:10209000236998420DD0D0E90032816813605A60FC
:1020A0009A680A449A60002303604FF0FF33A361EB
:1020B00010BD2346026843F8102F536000220260CF
:1020C00022699A4203D1BDE8104001F0E7B9936854
:1020D00081680B44936001F0D1F92269E16992684B
:1020E000441AA242E4D91144BDE81040091AFFF78E
:1020F00053BF00BF402800202DE9F047DFF8B8802B
:1021000008F110072B4ED8F8105001F0B7F9D8F8A5
:102110001C40AA68011B8A423DD81444D5E900320C
:10212000C8F81C4013605A6000232B60D8F81020B8
:10213000B242994601D101F0B1F989F31188D5E98C
:10214000033128469847302383F311886B69002BAD
:10215000D9D001F093F96A69A0EB04094A45824697
:102160000DD2022001F0E8F90022D8F81030B34275
:1021700008D151462846BDE8F047FFF729BF224461
:10218000121AF2E712EB090938BF4A4629463846C7
:10219000FFF7ECFEB6E7D8F81010B14208D01444AF
:1021A000211AC8F81C00A960BDE8F047FFF7F4BE8B
:1021B000BDE8F0875028002040280020002070470C
:1021C000FEE70000704700004FF0FF30704700004E
:1021D00002290CD0032904D00129074818BF002088
:1021E0007047032A05D8054800EBC2007047044831
:1021F00070470020704700BF443B000824220020A5
:10220000F83A000870B59AB00546084601A9144688
:1022100000F0BEF801A8FEF7B3FD431C5B00C5E962
:1022200000340022237003236370C6B201AB023472
:102230001046D1B28E4204F1020401D81AB070BD2A
:1022400013F8011B04F8021C04F8010C0132F0E73A
:1022500008B5302383F311880348FFF74DFA0023B4
:1022600083F3118808BD00BF302B002090F8443064
:1022700003F01F02012A07D190F845200B2A03D151
:102280000023C0E90E3315E003F06003202B08D1D2
:10229000B0F848302BB990F84520212A03D81F2ADE
:1022A00004D8FFF707BA222AEBD0FAE7034A826381
:1022B0000722C26303640120704700BF442200204C
:1022C00010B50446052916D8DFE801F016150316E7
:1022D000161D302383F311880E4A0121FFF7ACFA53
:1022E00020460D4A0221FFF7A7FA0C48FFF7CCF968
:1022F000002383F3118810BD302383F3118807482E
:10230000FFF798F9F4E7302383F311880348FFF7C8
:10231000AFF9EDE7D03A0008AC3A0008302B0020C6
:1023200038B50B4D0B4C0C492A462046FFF76AFF87
:1023300005F1CA0204F108000849FFF763FF05F53B
:10234000CA7204F110000649BDE83840FFF75ABFD1
:10235000D02800202C2200207A3900088C3900086F
:102360009739000870B5044608460D46FEF708FD8B
:10237000C6B22046013403780BB9184670BD324608
:102380002946FEF7E9FC0028F3D10120F6E700001A
:102390002DE9F04105460C46FEF7F2FC2A49C6B28B
:1023A0002846FFF7DFFF08B10A36F6B2274928466C
:1023B000FFF7D8FF08B11036F6B2632E07D8224FC8
:1023C000DFF888802E7846B92670BDE8F08129466E
:1023D0002046BDE8F041FDF7AFBF252E30D10722E2
:1023E00039462846FEF7B8FC70B9194B224603F16E
:1023F000100153F8040B42F8040B8B42F9D11B78FF
:10240000137007351134DDE7082241462846FEF7F0
:10241000A3FCA8B90F4B1048104EA21C197809094B
:102420000232415C02F8041C13F8011B01F00F0199
:10243000B342415C02F8031CF0D118340835C1E7FF
:1024400004F8016B0135BDE7A03900089739000891
:10245000A8390008107AFF1FBA3900081C7AFF1F3C
:10246000BFF34F8F024AD368DB03FCD4704700BF31
:10247000003C024008B5094B1B7873B9FFF7F0FF29
:10248000074B1A69002ABFBF064A5A6002F1883218
:102490005A601A6822F480621A6008BDC82F0020B2
:1024A000003C02402301674508B50B4B1B7893B9EC
:1024B000FFF7D6FF094B1A6942F000421A611A6809
:1024C00042F480521A601A6822F480521A601A6824
:1024D00042F480621A6008BDC82F0020003C024010
:1024E0001728F0B515D80C4C0C49237873B90C4D4E
:1024F0000E464FF00062013355F8047B46F8042B7A
:10250000DBB2182B3A44F6D10123237051F8200096
:10251000F0BD0020FCE700BFC92F0020CC2F002019
:10252000603B0008014B53F820007047603B0008F7
:1025300018207047172810B5044601D9002010BD97
:10254000FFF7CEFF064B53F824301844C21A0BB9DC
:102550000120F4E712680132F0D1043BF6E700BF36
:10256000603B0008172810B5044628D8FFF778FF0D
:10257000FFF780FF134AF3230C21D360B0FBF1F384
:1025800001FB1301DB0143EAC103DBB243F4007337
:1025900043F002031361136943F480331361FFF7BF
:1025A0005FFFFFF79DFF084B53F8241000F0D6F8AB
:1025B000FFF77AFF2046BDE81040FFF7BBBF0020C1
:1025C00010BD00BF003C0240603B0008F8B5D507D5
:1025D000144641D48318B3F1026F3DD82B4B1B68CE
:1025E000DA0739D52A4FFFF745FFF323FB60FFF7E2
:1025F00037FF40F20126032C15D824F00104244DA6
:102600000C44401A40F20117A1422B6901EB00066D
:1026100024D123F001032B61FFF746FF0120F8BD11
:10262000043C0430E7E78307E7D13B6923F44073B8
:102630003B613B6933433B6151F8045B0560BFF389
:102640004F8FFFF70DFF03689D42E9D03B6923F0F0
:1026500001033B61FFF728FF0020E0E723F440730C
:102660002B612B693B432B610B883380BFF34F8F6A
:10267000FFF7F6FE368831F8023BB6B2B342C3D05C
:102680002B6923F001032B61E4E700BF003802400F
:10269000003C0240084908B50B7828B11BB9FFF788
:1026A000E9FE01230B7008BD002BFCD0BDE80840FB
:1026B0000870FFF7F9BE00BFC82F002010B5024414
:1026C000064BD2B2904200D110BD441C00B253F868
:1026D000200041F8040BE0B2F4E700BF50280040AE
:1026E0000F4B30B51C6F240407D41C6F44F40074E6
:1026F0001C671C6F44F400441C670A4C236843F4B5
:10270000807323600244084BD2B2904200D130BDA6
:10271000441C00B251F8045B43F82050E0B2F4E7E7
:1027200000380240007000405028004007B50122E8
:1027300001A90020FFF7C2FF019803B05DF804FB78
:1027400013B50446FFF7F2FFA04205D0012201A90C
:1027500000200194FFF7C4FF02B010BD70470000D5
:10276000034B1A681AB9034AD2F874281A607047E2
:102770002C3000200030024008B5FFF7F1FF024B7B
:102780001868C0F3407008BD2C300020704700006E
:102790007047000070470000FEE700000A4B0B483E
:1027A0000B4A90420BD30B4BDA1C121AC11E22F0BB
:1027B0000302994288BF00220021FEF7E3BA53F8D2
:1027C000041B40F8041BECE73C3D0008A830002047
:1027D000A8300020A830002070B5D0E915439E68CD
:1027E00000224FF0FF3504EB42135101D3F80009EA
:1027F0000028BEBFD3F8000940F08040C3F80009AC
:10280000D3F8000B0028BEBFD3F8000B40F0804087
:10281000C3F8000B01326318B242C3F80859C3F879
:10282000085BE0D94FF00113C4F81C3870BD0000FC
:10283000890141F02001016103699B06FCD412204B
:10284000FFF716BB10B5054C2046FEF7D5FF4FF03D
:10285000A0436365024BA36510BD00BF4830002054
:10286000C03B000870B50378012B054650D12A4BB8
:10287000446D98421BD1294B5A6B42F080025A6337
:102880005A6D42F080025A655A6D5A6942F08002D0
:102890005A615A6922F080025A610E2143205B6915
:1028A00000F012FC1E4BE3601E4BC4F800380023FE
:1028B000C4F8003EC02323606E6D4FF45023A36321
:1028C0003369002BFCDA012333610C20FFF7D0FAC7
:1028D0003369DB07FCD41220FFF7CAFA3369002BF7
:1028E000FCDA0026A6602846FFF776FF6B68C4F87E
:1028F0001068DB68C4F81468C4F81C684BB90A4B4C
:10290000A3614FF0FF336361A36843F00103A36049
:1029100070BD064BF4E700BF48300020003802408D
:102920004014004003002002003C30C0083C30C08E
:10293000F8B5446D054600212046FFF779FFA96DE3
:1029400000234FF001128F68C4F834384FF000664E
:10295000C4F81C284FF0FF3004EB431201339F42B0
:10296000C2F80069C2F8006BC2F80809C2F8080B87
:10297000F2D20B686A6DEB6563621023136116690E
:1029800016F01006FBD11220FFF772FAD4F80038C7
:1029900023F4FE63C4F80038A36943F4402343F0F2
:1029A0001003A3610923C4F81038C4F814380A4B83
:1029B000EB604FF0C043C4F8103B084BC4F8003B39
:1029C000C4F81069C4F80039EB6D03F1100243F448
:1029D0008013EA65A362F8BDCC3B0008408000107C
:1029E000426D90F84E10D2F8003823F4FE6343EAAB
:1029F0000113C2F8003870472DE9F84300EB81035A
:102A00000C460FFA81F9D968456D0E6806F0030689
:102A1000731E022B05EB44134FF00002C3F8102B7A
:102A200004F110024FF0010398BFB60403FA02F359
:102A30008A698CBF334E06F18056804698BF06F5F2
:102A400000466001002A39D04F8A04F15802520131
:102A50003743AF50D5F81C281343C5F81C382B1842
:102A60000022C3F810294A690127631EA74092B3C8
:102A70000A8A898B9208012988BF4A434033D8F8D3
:102A80005C1005EB8303501841EA0241C8F85C0072
:102A9000596028462146FFF7CBFE08EB8900C36842
:102AA0001B8A43EA84534834640133432B51D5F8DD
:102AB0001C383B43C5F81C38BDE8F88305EB4917C3
:102AC000D7F8002B22F40042C7F8002BD5F81C28B9
:102AD00022EA0303C1E704F13F0305EB83030A4A3B
:102AE0005A6021462846FFF7A3FE05EB4913D3F8A9
:102AF000002922F40042C3F80029D5F81C3823EA43
:102B00000703D7E70080001000040002826D1268FE
:102B1000C265FFF761BE00005831436D49015B5843
:102B200013F4004004D013F4001F14BF012002204E
:102B3000704700004831436D49015B5813F4004071
:102B400004D013F4001F14BF0120022070470000BE
:102B500000EB8100C368196A0B6813604B6853600F
:102B60007047000000EB810330B5DD68AA69136887
:102B7000D36019B9402B84BF402313606B8A14685B
:102B8000426D1C44013CB4FBF3F46343033323F074
:102B9000030302EB411043EAC44343F0C043C0F8CF
:102BA000103B2B6803F00303012B09B20ED1D2F8BE
:102BB000083802EB411013F4807FD0F8003B14BFBB
:102BC00043F0805343F00053C0F8003B02EB411246
:102BD000D2F8003B43F00443C2F8003B30BD000094
:102BE0002DE9F041234D6E6D06EB40130446D3F8FA
:102BF000087BC3F8087B38070AD5D6F814381907BC
:102C000006D505EB84032146DB6828465B689847B8
:102C1000FA071FD5D6F81438DB071BD505EB84035C
:102C2000D9688B69C4B9488A5A68B2FBF0F600FBD0
:102C300016228AB91868DA6890420DD2121AC3E9CE
:102C40000024302383F311880A482146FFF78AFFC6
:102C500084F31188BDE8F0816B890122A24023EA48
:102C600002036B81CB68002BF4D021460148BDE8FC
:102C7000F04118474830002000EB810370B5DD6853
:102C8000436D6C692668E6604A014EBB1A444FF4F6
:102C90000020C2F810092A6802F00302012A0AB2D1
:102CA0000ED1D3F8080803EB421410F4807FD4F857
:102CB000000914BF40F0805040F00050C4F80009F3
:102CC00003EB4212D2F8000940F00440C2F80009B8
:102CD000D3F8340801228A400243C3F8342870BD77
:102CE00019B9402E84BF4020206020682E8A8419A4
:102CF000013CB4FBF6F440EAC44040F000501A44F2
:102D0000C7E700002DE9F8433B4D6E6D06EB40131D
:102D10000446D3F80889C3F8088918F0010F4FEA70
:102D200040171AD0D6F81038DB0716D505EB80030C
:102D3000D9684B691868DA68904230D2121A4FF09D
:102D400000091A60C3F80490302383F311882146E8
:102D50002846FFF791FF89F3118818F0800F1CD0E7
:102D6000D6F834380126A640334216D005EB84034A
:102D70006D6DD3F80CC0DCF814200134E4B2D2F845
:102D800000E005EB04342F445168714514D3D5F8A5
:102D9000343823EA0603C5F83438BDE8F8832B89B4
:102DA0000122A24023EA02032B818B68002BD4D09E
:102DB000214628469847D0E7BCF81000AEEB010347
:102DC000834228BF0346D7F8180980B2B3EB800FBF
:102DD000E3D89068A0F1040959F8048FC4F8008082
:102DE000A0EB09089844B8F1040FF5D81844194429
:102DF00090605160C8E700BF483000202DE9F047DF
:102E00009C4C656D6E69AB691E4016F480586E610E
:102E100006D02046FEF758FDBDE8F04700F038BC6C
:102E2000002E12DAD5F8003E92489B071EBFD5F857
:102E3000003E23F00303C5F8003ED5F8043823F024
:102E40000103C5F80438FEF769FD370505D5894843
:102E5000FFF7C2FC8748FEF74FFDB0040CD5D5F84C
:102E6000083813F0060FEB6823F470530CBF43F4DB
:102E7000105343F4A053EB6031071BD56368DB6844
:102E80001BB9AB6923F00803AB612378052B0CD188
:102E9000D5F8003E77489A071EBFD5F8003E23F0CC
:102EA0000303C5F8003EFEF739FD6368DB680BB12C
:102EB00070489847F30232D50021D4F854900F4659
:102EC00009EB4713D3F8002902F44022B2F5802F12
:102ED0001ED1D3F80029002A1ADAD3F8002942F0CB
:102EE0009042C3F80029D3F80029002AFBDB606D6B
:102EF000FFF79EFC23890122BA4023EA02032381C3
:102F000004EB8703DB689B6813B15A48394698473E
:102F1000A36D01379B68FFB29F423946D0D9B702F3
:102F200025D5D4F8549000274FF0010A09EB471239
:102F3000D2F8003B03F44023B3F5802F11D1D2F82F
:102F4000003B002B0DDA63890AFA07F223EA020339
:102F5000638104EB8703DB68DB6813B145483946BE
:102F60009847A36D01379B68FFB29F42DED9F006F8
:102F700016D5676D3A6AC2F30A1002F00F0302F425
:102F8000F012B2F5802F4AD0B2F5402F08D104EBF1
:102F900083030022DB681B6A07F58057904230D11B
:102FA0003003D5F8184813D5E10302D50020FFF708
:102FB00017FEA20302D50120FFF712FE630302D51C
:102FC0000220FFF70DFE270302D50320FFF708FEBE
:102FD00075037FF521AFE00702D50020FFF792FED1
:102FE000A10702D50120FFF78DFE620702D502205E
:102FF000FFF788FE23077FF50FAF0320FFF782FE60
:103000000AE7910708BFD7F80080072A98BF03F89E
:10301000018B02F1010298BF4FEA1828BEE7023384
:1030200004EB830207F580575268D2F818C0DCF829
:103030000820DCE9001CA1EB0C0C002188420AD11D
:1030400004EB830463689B699A6802449A605A6837
:1030500002445A60A4E711F0030F08BFD7F80080BC
:103060008C4588BF02F8018B01F1010188BF4FEA4E
:103070001828E3E748300020436D03EB4111D1F8F5
:10308000003B43F40013C1F8003B7047436D03EB72
:103090004111D1F8003943F40013C1F800397047E9
:1030A000436D03EB4111D1F8003B23F40013C1F849
:1030B000003B7047436D03EB4111D1F8003923F415
:1030C0000013C1F80039704700F1604303F5614314
:1030D0000901C9B283F80013012200F01F039A40CE
:1030E00043099B0003F1604303F56143C3F880216A
:1030F0001A60704730B5039C0172043304FB03254A
:10310000C0E90653049B03630021059BC160C0E92D
:103110000000C0E90422C0E90842C0E90A11436383
:1031200030BD0000416A0022C0E90411C0E90A2252
:10313000C2606FF00101FEF70BBF0000D0E904325E
:10314000934201D1C2680AB9181D70470020704728
:1031500003691960C2680132C260C269134482699E
:103160000361934224BF436A03610021FEF7E4BE7A
:1031700038B504460D46E3683BB16269131D126819
:10318000A3621344E362002007E0237A33B929469F
:103190002046FEF7C1FE0028EDDA38BD6FF00100D1
:1031A000FBE70000C368C269013BC3604369134485
:1031B00082694361934224BF436A4361002383626F
:1031C000036B03B11847704770B53023044683F38F
:1031D0001188866A3EB9FFF7CBFF054618B186F322
:1031E0001188284670BDA36AE26A13F8015BA362E6
:1031F000934202D32046FFF7D5FF002383F31188C3
:10320000EFE700002DE9F84F04460F4691469A4635
:103210004FF0300888F311880026B346A56A4DB9EF
:1032200051462046FFF7A4FF20B185F311883046B0
:10323000BDE8F88FD4E90A15A9EB06036D1A9D4283
:1032400028BF1D46402D1AD93B4601F1400251F8D6
:10325000040B43F8040B9142F9D1A36A4037403381
:103260004036E26AA3629A4202D82046FFF79AFFEC
:103270008BF311884E45DAD288F31188CEE73846B1
:103280002A46FDF75FFDA36A2F442B442E44E8E74E
:1032900010B5029C0172043303FB0421C0E906133C
:1032A0000023C0E90A33039B0363049BC460C0E9A5
:1032B0000000C0E90422C0E90842436310BD0000D9
:1032C000026AC260426AC0E904220022C0E90A22FE
:1032D0006FF00101FEF73CBE0346D0E904208242B4
:1032E00001D1DB681BB950F8043B0B607047002329
:1032F0001846FAE7C368C2690133C36043691344DF
:1033000082694361934224BF436A43610021FEF70F
:1033100013BE000038B504460D46E3683BB123698F
:103320001A1DA262E2691344E362002007E0237AD7
:1033300033B929462046FEF7EFFD0028EDDA38BD07
:103340006FF00100FBE7000003691960C268013AF1
:10335000C260C269134482690361934224BF436A15
:10336000036100238362036B03B1184770470000B9
:1033700070B530230D460446114683F31188866AE2
:103380002EB9FFF7C7FF10B186F3118870BDA36A8D
:103390001D70A36AE26A01339342A36204D3E16918
:1033A00020460439FFF7D0FF002080F31188EDE7B5
:1033B0002DE9F84F05460C4691469A464FF03008E5
:1033C00088F311880027BB46AE6A4EB9514628469D
:1033D000FFF7A0FF20B186F311883846BDE8F88FCB
:1033E000D5E90A06A9EB0703361A9E4228BF1E46F6
:1033F000402E1AD904F1400354F8042B40F8042B52
:103400009C42F9D1AB6A40374033EA6AAB629A42D8
:1034100004D8E96928460439FFF796FF8BF3118831
:103420004F45DAD288F31188CEE721463246FDF7C0
:1034300089FCAB6A344433443744E6E7D0E90421DD
:103440008A42034616D1C068A8B1986A98B1043878
:10345000801A10D01060D9680139D960D9690A443E
:1034600099691A618A4224BF5A6A1A6100229A62D3
:10347000012070470020704700F034B9014B586AB2
:10348000704700BF000C0040034B002258631A61D4
:103490000222DA60704700BF000C0040014B00229E
:1034A000DA607047000C0040014B5863704700BF62
:1034B000000C0040FEE7000070B51B4B01630025C7
:1034C000044686B085620E46586000F0BDF804F1EF
:1034D0001003C4E904334FF0FF33C4E90635C4E9EF
:1034E0000044A560E562FFF7C9FF2B460246C4E928
:1034F000082304F134010D4A256580232046FEF798
:10350000C1FC0123E0600A4A0375009272680192CF
:10351000B268CDE90223074B6846CDE90435FEF7D2
:10352000D9FC06B070BD00BF98280020CB39000838
:10353000D0390008B5340008024AD36A0343D36285
:10354000704700BF402800204B6843608B68836051
:10355000CB68C3600B6943614B6903628B6943624B
:103560000B6803607047000008B5254B25481A69B1
:1035700040F2FF110A431A611A696FF308021A61D7
:103580001A691A6B0A431A631A6D0A431A651E4AAE
:103590001B6D1146FFF7D8FF02F11C0100F580609A
:1035A000FFF7D2FF02F1380100F58060FFF7CCFF92
:1035B00002F1540100F58060FFF7C6FF02F17001CF
:1035C00000F58060FFF7C0FF02F18C0100F580601C
:1035D000FFF7BAFF02F1A80100F58060FFF7B4FF22
:1035E00002F1C40100F58060FFF7AEFF02F1E001D7
:1035F00000F58060FFF7A8FFBDE8084000F0F0B8D4
:103600000038024000000240F03B000808B500F01E
:1036100081F9FEF715FCFFF7A3F8BDE80840FEF7B7
:103620007FBE000070470000EFF3098305494A6B35
:1036300022F001024A63683383F30988002383F38D
:103640001188704700EF00E0302080F3118862B6E7
:103650000C4B0D4AD96821F4E0610904090C0A43B6
:10366000DA60D3F8FC20094942F08072C3F8FC20EC
:103670000A6842F001020A602022DA7783F8220009
:10368000704700BF00ED00E00003FA05001000E005
:1036900010B5302383F311880E4B5B6813F400637D
:1036A00014D0F1EE103AEFF30984683C4FF08073C8
:1036B000E361094BDB6B236684F30988FEF79AFB11
:1036C00010B1064BA36110BD054BFBE783F31188D6
:1036D000F9E700BF00ED00E000EF00E02F03000875
:1036E000320300080E4B1A6C42F008021A641A6E7C
:1036F00042F008021A660B4A1B6E936843F00803F7
:103700009360094B53229A624FF0FF32DA62002233
:103710009A615A63DA605A6001225A611A607047EE
:1037200000380240002004E0000C0040094A08B5BF
:103730001169D3680B40D9B2C9439B07116107D502
:10374000302383F31188FEF791FB002383F3118864
:1037500008BD00BF000C00401F4B1A696FEAC2523F
:103760006FEAD2521A611A69C2F308021A614FF065
:10377000FF301A695A69586100215A6959615A69BA
:103780001A6A62F080521A621A6A02F080521A6251
:103790001A6A5A6A58625A6A59625A6A1A6C42F02C
:1037A00080521A641A6E42F080521A661A6E0B4AE0
:1037B000106840F480701060186F00F44070B0F52D
:1037C000007F1EBF4FF4803018671967536823F4D9
:1037D0000073536000F092B800380240007000405F
:1037E000344B4FF080521A64334A4FF44041116019
:1037F0001A6842F001021A601A689107FCD59A68AB
:1038000022F003029A602B4B9A6812F00C02FBD153
:10381000196801F0F90119609A601A6842F480325F
:103820001A601A689203FCD55A6F42F001025A6777
:10383000204B5A6F9007FCD5204A5A601A6842F014
:1038400080721A601C4A53685904FCD5194B1A68D7
:103850009201FCD51A4A9A600322C3F88C20194BB6
:103860001A68194B9A42194B21D1194A1168194A01
:1038700091421CD140F205121A60144A136803F0F9
:103880000F03052BFAD10B4B9A6842F002029A60A3
:103890009A6802F00C02082AFAD15A6C42F480426B
:1038A0005A645A6E42F480425A665B6E704740F228
:1038B0000572E1E7003802400070004008544007FC
:1038C00000948838002004E011640020003C02408D
:1038D00000ED00E041C20F4108B50348FDF78CFB45
:1038E000BDE80840FFF7D4BEC023002008B5FFF7AD
:1038F0001DFFBDE80840FFF7CBBE000008B507215B
:103900003220FFF7E1FBBDE808400C212620FFF73D
:10391000DBBB000008B5FFF71FFF00F00DF8FDF757
:103920007FFDFDF767FFFDF73DFEFFF77BFEBDE87E
:103930000840FFF7A1BD000070470000613938332F
:103940003765306263653733316237620053544DF7
:103950003332463F3F3F0053544D33324634307884
:103960000053544D3332463432780053544D333281
:10397000463434365858006330004D54432F477551
:103980006964616E636550696C6F740025424F41D4
:103990005244252D424C002553455249414C2500A7
:1039A00025424F415244250047756964616E636545
:1039B00050696C6F744634323900303132333435EB
:1039C00036373839414243444546006D61696E00DF
:1039D00069646C6500000000121100001213000001
:1039E00012100000012033000010410001105A00A5
:1039F0000310590007103100000000004D39000885
:103A00001304000057390008190400006139000848
:103A1000210400006B39000800960000000000003F
:103A20000000000000000000000000000000000096
:103A3000E1130008CD13000809140008F51300086D
:103A400001140008ED130008D9130008C51300087D
:103A50001514000800000000211500080D150008CD
:103A60004915000835150008411500082D150008F6
:103A7000191500080515000855150008010000007B
:103A80000000000000000000773900083026002008
:103A9000402800204830002001010200C122000817
:103AA000D12100086D220008512200080300000007
:103AB00000000000F11700080000000010000000E6
:103AC000A02800200000000001000000000000000D
:103AD000020000000000000045170008AD170008B4
:103AE00040004000C0280020B02800200200000054
:103AF000000000000403090443000000003B00082C
:103B000009024300020100C0320904000001020260
:103B10000100052400100105240100010424020213
:103B20000524060001070582030800FF09040100BF
:103B3000020A00000007050102400000070581029B
:103B400040000000120000004C3B00081201100170
:103B500002000040A2310110000201020301000036
:103B60000040000000400000004000000040000055
:103B7000000001000000020000000200000002003E
:103B8000000002000000020000000200000002002D
:103B90000040000000400000004000000040000025
:103BA000000001000000020000000200000002000E
:103BB00000000200000002000000020000000200FD
:103BC0008000000040010000030000000000000031
:103BD00035190008ED1B0008991C00084000400042
:103BE0003830002038300020010000003030002044
:103BF0000000010000020000AAAAAAAA00000024F6
:103C0000FFFF0000000000000000000000000000B6
:103C100000000000AAAAAAAA00000000FFFF0000FE
:103C20000000000000000000000100000000000093
:103C3000AAAAAAAA00000000FFFF000000000000DE
:103C4000000000008029000000000000AAAAAAAA23
:103C500040160000FFFF0000007070070000000029
:103C60004000000000000000AAAAAAAA000000006C
:103C7000F7FF00000000000000000000000000004E
:103C800000000000AAAAAAAA00000000FFFF00008E
:103C90000000000000000000000000040000000020
:103CA000AAAAAAAA00000000FFFF0000000000006E
:103CB0000000000000000000000000000A000000FA
:103CC00000000000030000000000000000000000F1
:103CD00000000000000000000000000000000000E4
:103CE00000000000000000000000000000000000D4
:103CF000181600000000000000C01F0000000000B7
:103D0000FF000000302B0020C023002000960000A0
:103D10000000080004000000F43A00080000000061
:103D20000000000000000000000000000000000093
:0C3D3000000000000096000000000800E9
:00000001FF
